:08000000803102288731FD2F39
:100F1A00700824009100080024001108F200F3016F
:100F2A007208F0007308F1000800F600760C24003D
:100F3A00031C941303189417700C031C141303183E
:100F4A00141715087106F03971069500730C031C05
:100F5A00151203181516740C031C9512031895160E
:100F6A000800F0010030F100F200F3010130F40052
:100F7A000030F500013087319A278731FF30210090
:100F8A008D008C0120008C0121008E1320008E1709
:100F9A0020008E130330F7009830890BD22FF70BFD
:100FAA00D22F20000D08F700F8017708F000780822
:100FBA00F10087318D278731873191278731700872
:100FCA0020008D000330F7009830890BEA2FF70BC9
:100FDA00EA2F20008E170230F8000430F700BA30EA
:100FEA00890BF52FF70BF52FF80BF52F0032CD2FC4
:060FFA0020008731B62F34
:020000040001F9
:08000E00FFFFFFFFFFFFFFFFF2
:00000001FF
