:08000000803102288731FA2F3C
:100D2000FF34F00024009513700891001418962EDB
:100D3000110808007D08F500F6017508F100760835
:100D4000F2008631BD2686312400141CA42E110821
:100D500008004430F7007708F800F9017808863178
:100D60009126863186319A268631F7007708F90078
:100D7000790A031DAE2E01300800F301F4010030A2
:100D80007402023003197302031808007108730714
:100D900084007208743D85000008863191268631F2
:100DA0000130F3070030F43DBF2EF600760C24002E
:100DB000031C941303189417700C031C14130318CA
:100DC000141715087106F03971069500730C031C91
:100DD000151203181516740C031C9512031895169A
:100DE00008008631A9268631FC007C082000B0006E
:100DF000300803190800B101B2013208803AFC0042
:100E00007B08803A7C02031D072F7A083102031801
:100E100008007D0886319126863186319A268631F2
:100E2000FC0020003108203E860087017C088100FC
:100E30000130B1070030B23DFD2EF0010030F1006D
:100E4000F200F3010130F4000030F500013086318A
:100E5000D526873121000E108E140E118E110D161D
:100E60008D160D138D170E160C1520000E1A442F1B
:100E700001302000B5070030B63D10303506273070
:100E800003193606031D352F5830F1008930F20062
:100E90008631BD2687310B30FA000030FB008631E9
:100EA000F12687312000B901BE01BD01BA01BC01A4
:100EB0000C1D5C2FBE01BE0A3E03031D642F3D03C3
:100EC00003193A030319672F3903031D6A2FBC0165
:100ED000BC0A872F2330F1000030F2008631BD2696
:100EE00087310A30FA000030FB008631F126873165
:100EF00020003E08031D7E2F0C19872F3D08031D7F
:100F00005C2F0E1A872F5C2F86319A26873124009A
:100F100011087D06031D842F20003C08031DF82FB7
:100F20004930F1008930F2008631BD268731083022
:100F3000FA000030FB008631F12687312000BF0126
:100F4000C001003040021F3003193F020318D22FA6
:100F5000400885003F088400003084078830853DC4
:100F60000008B300B4013308F1003408F200863100
:100F7000BD2687312000BB013B08031DC72F8631EA
:100F8000A92687312000B3003308BB00BC2F0130F5
:100F9000BF070030C03D003040021F3003193F0240
:100FA000031CA82F6430B7000030B8003808803A1E
:100FB000B30080303302031DDF2F01303702031CE2
:100FC000E72FFF302000B707FF30B83DD62F0030A5
:100FD0008631912687314430863191268731883099
:100FE000863191268731CC30863191268731E72FA3
:100FF0008031022886319026FD00200087311D2F88
:101000006B34853480344134FB34ED34CF34BF3419
:10101000AF349F34283439348F347B347F346F3489
:10102000513476345F34DF3465345F3471341F34C7
:101030004F343F342F34313414341F3408341134D6
:1010400030340C34003400340034003400340034C4
:1010500000340034003400340034003400341134DF
:1010600021340C341834C934FC341B341E340F348E
:101070000134FC34FD341534FF3400340F341134A2
:1010800021340C340C34FC34FD341534FF3400347A
:101090000F34FF34BA340F345134CF34A9341134FF
:1010A00021340C340034FF34BA340F345134CF348B
:1010B000A934C934FC341B341E340F3401341134C8
:1010C00020340C34383411346D346D34003402342F
:1010D000FF34FF3400342A340C34A4342334113464
:1010E00020340C34243401340634253400341634CE
:1010F0000234023400340034123480342C3411347D
:1011000020340C3418340434003408340334C0342C
:101110000034103410340034E8340134F434113421
:1011200020340C3400340434003407340134863461
:10113000A0340134C934C334803400340834113449
:1011400012340C34243400340034003400340034BD
:1011500000340034003400340034003400341134DE
:1011600012340C34183400340034003400340034A9
:1011700000340034003400340034003400341134BE
:1011800012340C340C3430340034073414348034CA
:10119000003400340034003400340034003411349E
:1011A00012340C340034043400343034FF34FF344F
:1011B000203422340034003400340034303411340C
:1011C00020340A34453403340234FF34013400340B
:1011D000FF340634003418344034113411340A34E6
:1011E00000340934B4342B34003400340034003477
:1011F000003400340034113410340934003408341D
:10120000143400340F3431340034003400340034EA
:1012100011344034083400343C3408340034003491
:10122000223422342034FF34113423340734003480
:101230002C340E340B3404340C3473340334113432
:10124000203405345B34403404341634783420348C
:101250001134123405343034003400340034003496
:101260000034113422340434003408347F34003420
:101270001D34113412340434363400340034003454
:1012800000341134023404340034003400340034A7
:10129000003413340034003400340034003400349B
:1012A000003411342034033430340934A534A034EC
:1012B0000234013400340134C934C334803411346D
:1012C0002034023454340A340734113420340234C4
:1012D000503484340834113400340234003452342D
:1012E0004034113420340134573400341134203464
:1012F00001343534E0341134203401340C343134C9
:101300001134013401340034003411340034013418
:04131000033420344E
:020000040001F9
:08000E00FFFFFFFFFFFFFFFFF2
:00000001FF
